{
  "contractName": "Evaluaciones",
  "abi": [
    {
      "inputs": [],
      "stateMutability": "nonpayable",
      "type": "constructor"
    },
    {
      "anonymous": false,
      "inputs": [
        {
          "indexed": false,
          "internalType": "bytes32",
          "name": "",
          "type": "bytes32"
        }
      ],
      "name": "alumnoEvaluado",
      "type": "event"
    },
    {
      "anonymous": false,
      "inputs": [
        {
          "indexed": false,
          "internalType": "string",
          "name": "",
          "type": "string"
        }
      ],
      "name": "alumnoRevision",
      "type": "event"
    },
    {
      "inputs": [],
      "name": "profesor",
      "outputs": [
        {
          "internalType": "address",
          "name": "",
          "type": "address"
        }
      ],
      "stateMutability": "view",
      "type": "function",
      "constant": true
    },
    {
      "inputs": [
        {
          "internalType": "string",
          "name": "_asignatura",
          "type": "string"
        },
        {
          "internalType": "string",
          "name": "_id",
          "type": "string"
        },
        {
          "internalType": "uint256",
          "name": "_nota",
          "type": "uint256"
        }
      ],
      "name": "evaluar",
      "outputs": [],
      "stateMutability": "nonpayable",
      "type": "function"
    },
    {
      "inputs": [
        {
          "internalType": "string",
          "name": "_asignatura",
          "type": "string"
        },
        {
          "internalType": "string",
          "name": "_id",
          "type": "string"
        }
      ],
      "name": "consultarnota",
      "outputs": [
        {
          "internalType": "uint256",
          "name": "",
          "type": "uint256"
        }
      ],
      "stateMutability": "view",
      "type": "function",
      "constant": true
    },
    {
      "inputs": [
        {
          "internalType": "string",
          "name": "_asignatura",
          "type": "string"
        },
        {
          "internalType": "string",
          "name": "_id",
          "type": "string"
        }
      ],
      "name": "solicitarRevision",
      "outputs": [],
      "stateMutability": "nonpayable",
      "type": "function"
    },
    {
      "inputs": [
        {
          "internalType": "string",
          "name": "_asignatura",
          "type": "string"
        }
      ],
      "name": "pedidosRevision",
      "outputs": [
        {
          "internalType": "string[]",
          "name": "",
          "type": "string[]"
        }
      ],
      "stateMutability": "view",
      "type": "function",
      "constant": true
    }
  ],
  "bytecode": "0x608060405234801561001057600080fd5b50336000806101000a81548173ffffffffffffffffffffffffffffffffffffffff021916908373ffffffffffffffffffffffffffffffffffffffff1602179055506110eb806100606000396000f3fe608060405234801561001057600080fd5b50600436106100575760003560e01c806315349c841461005c5780632071decd1461007857806395279c7714610094578063d2fe7ef8146100c4578063df096576146100f4575b600080fd5b61007660048036038101906100719190610945565b610112565b005b610092600480360381019061008d91906109d0565b610337565b005b6100ae60048036038101906100a991906109d0565b6104dc565b6040516100bb9190610a57565b60405180910390f35b6100de60048036038101906100d99190610a72565b610527565b6040516100eb9190610c05565b60405180910390f35b6100fc6106ae565b6040516101099190610c68565b60405180910390f35b338073ffffffffffffffffffffffffffffffffffffffff1660008054906101000a900473ffffffffffffffffffffffffffffffffffffffff1673ffffffffffffffffffffffffffffffffffffffff16146101a1576040517f08c379a000000000000000000000000000000000000000000000000000000000815260040161019890610ce0565b60405180910390fd5b600084846040516020016101b6929190610d3c565b60405160208183030381529060405280519060200120905082600160008381526020019081526020016000208190555060005b6002866040516101f99190610d60565b9081526020016040518091039020805490508110156102f8576002866040516102229190610d60565b9081526020016040518091039020818154811061024257610241610d77565b5b9060005260206000200160405160200161025c9190610e9a565b60405160208183030381529060405280519060200120856040516020016102839190610d60565b60405160208183030381529060405280519060200120036102e5576002866040516102ae9190610d60565b908152602001604051809103902081815481106102ce576102cd610d77565b5b9060005260206000200160006102e491906106d2565b5b80806102f090610ee0565b9150506101e9565b507f0a3c6f62477defa9fa18ec25f11bc12442e443ba8e3d8f822e381b98c0f39b08816040516103289190610f41565b60405180910390a15050505050565b3360008054906101000a900473ffffffffffffffffffffffffffffffffffffffff1673ffffffffffffffffffffffffffffffffffffffff168173ffffffffffffffffffffffffffffffffffffffff16036103c6576040517f08c379a00000000000000000000000000000000000000000000000000000000081526004016103bd90610fa8565b60405180910390fd5b6000826040516020016103d99190610d60565b6040516020818303038152906040528051906020012090506000600160008381526020019081526020016000205411610447576040517f08c379a000000000000000000000000000000000000000000000000000000000815260040161043e9061103a565b60405180910390fd5b6002846040516104579190610d60565b90815260200160405180910390208390806001815401808255809150506001900390600052602060002001600090919091909150908051906020019061049e929190610712565b507f3441bf08683c5ce9ac29608f60dece00911c408707b5c135483c0353ba62d769836040516104ce9190611093565b60405180910390a150505050565b60008083836040516020016104f2929190610d3c565b604051602081830303815290604052805190602001209050600160008281526020019081526020016000205491505092915050565b6060338073ffffffffffffffffffffffffffffffffffffffff1660008054906101000a900473ffffffffffffffffffffffffffffffffffffffff1673ffffffffffffffffffffffffffffffffffffffff16146105b8576040517f08c379a00000000000000000000000000000000000000000000000000000000081526004016105af90610ce0565b60405180910390fd5b6002836040516105c89190610d60565b9081526020016040518091039020805480602002602001604051908101604052809291908181526020016000905b828210156106a257838290600052602060002001805461061590610dd5565b80601f016020809104026020016040519081016040528092919081815260200182805461064190610dd5565b801561068e5780601f106106635761010080835404028352916020019161068e565b820191906000526020600020905b81548152906001019060200180831161067157829003601f168201915b5050505050815260200190600101906105f6565b50505050915050919050565b60008054906101000a900473ffffffffffffffffffffffffffffffffffffffff1681565b5080546106de90610dd5565b6000825580601f106106f0575061070f565b601f01602090049060005260206000209081019061070e9190610798565b5b50565b82805461071e90610dd5565b90600052602060002090601f0160209004810192826107405760008555610787565b82601f1061075957805160ff1916838001178555610787565b82800160010185558215610787579182015b8281111561078657825182559160200191906001019061076b565b5b5090506107949190610798565b5090565b5b808211156107b1576000816000905550600101610799565b5090565b6000604051905090565b600080fd5b600080fd5b600080fd5b600080fd5b6000601f19601f8301169050919050565b7f4e487b7100000000000000000000000000000000000000000000000000000000600052604160045260246000fd5b61081c826107d3565b810181811067ffffffffffffffff8211171561083b5761083a6107e4565b5b80604052505050565b600061084e6107b5565b905061085a8282610813565b919050565b600067ffffffffffffffff82111561087a576108796107e4565b5b610883826107d3565b9050602081019050919050565b82818337600083830152505050565b60006108b26108ad8461085f565b610844565b9050828152602081018484840111156108ce576108cd6107ce565b5b6108d9848285610890565b509392505050565b600082601f8301126108f6576108f56107c9565b5b813561090684826020860161089f565b91505092915050565b6000819050919050565b6109228161090f565b811461092d57600080fd5b50565b60008135905061093f81610919565b92915050565b60008060006060848603121561095e5761095d6107bf565b5b600084013567ffffffffffffffff81111561097c5761097b6107c4565b5b610988868287016108e1565b935050602084013567ffffffffffffffff8111156109a9576109a86107c4565b5b6109b5868287016108e1565b92505060406109c686828701610930565b9150509250925092565b600080604083850312156109e7576109e66107bf565b5b600083013567ffffffffffffffff811115610a0557610a046107c4565b5b610a11858286016108e1565b925050602083013567ffffffffffffffff811115610a3257610a316107c4565b5b610a3e858286016108e1565b9150509250929050565b610a518161090f565b82525050565b6000602082019050610a6c6000830184610a48565b92915050565b600060208284031215610a8857610a876107bf565b5b600082013567ffffffffffffffff811115610aa657610aa56107c4565b5b610ab2848285016108e1565b91505092915050565b600081519050919050565b600082825260208201905092915050565b6000819050602082019050919050565b600081519050919050565b600082825260208201905092915050565b60005b83811015610b21578082015181840152602081019050610b06565b83811115610b30576000848401525b50505050565b6000610b4182610ae7565b610b4b8185610af2565b9350610b5b818560208601610b03565b610b64816107d3565b840191505092915050565b6000610b7b8383610b36565b905092915050565b6000602082019050919050565b6000610b9b82610abb565b610ba58185610ac6565b935083602082028501610bb785610ad7565b8060005b85811015610bf35784840389528151610bd48582610b6f565b9450610bdf83610b83565b925060208a01995050600181019050610bbb565b50829750879550505050505092915050565b60006020820190508181036000830152610c1f8184610b90565b905092915050565b600073ffffffffffffffffffffffffffffffffffffffff82169050919050565b6000610c5282610c27565b9050919050565b610c6281610c47565b82525050565b6000602082019050610c7d6000830184610c59565b92915050565b600082825260208201905092915050565b7f6e6f20736f7320656c2070726f6665736f720000000000000000000000000000600082015250565b6000610cca601283610c83565b9150610cd582610c94565b602082019050919050565b60006020820190508181036000830152610cf981610cbd565b9050919050565b600081905092915050565b6000610d1682610ae7565b610d208185610d00565b9350610d30818560208601610b03565b80840191505092915050565b6000610d488285610d0b565b9150610d548284610d0b565b91508190509392505050565b6000610d6c8284610d0b565b915081905092915050565b7f4e487b7100000000000000000000000000000000000000000000000000000000600052603260045260246000fd5b7f4e487b7100000000000000000000000000000000000000000000000000000000600052602260045260246000fd5b60006002820490506001821680610ded57607f821691505b602082108103610e0057610dff610da6565b5b50919050565b60008190508160005260206000209050919050565b60008154610e2881610dd5565b610e328186610d00565b94506001821660008114610e4d5760018114610e5e57610e91565b60ff19831686528186019350610e91565b610e6785610e06565b60005b83811015610e8957815481890152600182019150602081019050610e6a565b838801955050505b50505092915050565b6000610ea68284610e1b565b915081905092915050565b7f4e487b7100000000000000000000000000000000000000000000000000000000600052601160045260246000fd5b6000610eeb8261090f565b91507fffffffffffffffffffffffffffffffffffffffffffffffffffffffffffffffff8203610f1d57610f1c610eb1565b5b600182019050919050565b6000819050919050565b610f3b81610f28565b82525050565b6000602082019050610f566000830184610f32565b92915050565b7f4e6f20736f7320756e20616c756d6e6f00000000000000000000000000000000600082015250565b6000610f92601083610c83565b9150610f9d82610f5c565b602082019050919050565b60006020820190508181036000830152610fc181610f85565b9050919050565b7f4e6f20657374617320636f7272656769646f2c20706f72206c6f20717565206e60008201527f6f20706f64657320736f6c696369746172207265766973696f6e000000000000602082015250565b6000611024603a83610c83565b915061102f82610fc8565b604082019050919050565b6000602082019050818103600083015261105381611017565b9050919050565b600061106582610ae7565b61106f8185610c83565b935061107f818560208601610b03565b611088816107d3565b840191505092915050565b600060208201905081810360008301526110ad818461105a565b90509291505056fea2646970667358221220124e1628d4688b58d3c7b2ca6f4e1846548782d92faebef3c6ba52799b1e956064736f6c634300080d0033",
  "immutableReferences": {},
  "source": "// SPDX-License-Identifier: MIT\r\npragma solidity 0.8.13;\r\npragma experimental ABIEncoderV2;\r\n\r\n// -----------------------------------\r\n//  ALUMNO   |    ID    |      NOTA\r\n// -----------------------------------\r\n//  Marcos |    77755N    |      5\r\n//  Joan   |    12345X    |      9\r\n//  Maria  |    02468T    |      2\r\n//  Marta  |    13579U    |      3\r\n//  Alba   |    98765Z    |      5\r\n\r\ncontract Evaluaciones {\r\n    //Direccion del profesor\r\n    address public profesor;\r\n\r\n    constructor() {\r\n        profesor=msg.sender;\r\n    }\r\n    //mapeamos el hash del alumno a la nota\r\n    mapping(bytes32=>uint) nota;\r\n    //string de alumnos a revisar\r\n    mapping (string =>string []) revisiones;\r\n\r\n    event alumnoEvaluado(bytes32);\r\n    event alumnoRevision(string);\r\n\r\n    modifier soloProfesor(address _ad) {\r\n        require (profesor==_ad,\"no sos el profesor\");\r\n        _;\r\n    }\r\n\r\n    modifier soloAlumno (address _direccion) {\r\n        require (_direccion!=profesor, \"No sos un alumno\");\r\n        _;\r\n    }\r\n\r\n    \r\n\r\n    function evaluar(string memory _asignatura,string memory _id, uint _nota) public soloProfesor(msg.sender) {\r\n        bytes32 hashAlumno=keccak256(abi.encodePacked(_asignatura,_id));\r\n        nota[hashAlumno]=_nota;\r\n        for (uint i=0;i<revisiones[_asignatura].length;i++) {\r\n            if (keccak256(abi.encodePacked(_id))==keccak256(abi.encodePacked(revisiones[_asignatura][i]))) {\r\n                delete revisiones[_asignatura][i];\r\n            }\r\n        }\r\n        emit alumnoEvaluado(hashAlumno);\r\n    }\r\n    \r\n    function consultarnota(string memory _asignatura,string memory _id) public view returns(uint){\r\n        bytes32 hashAlumno=keccak256(abi.encodePacked(_asignatura,_id));\r\n        return nota[hashAlumno];\r\n    }\r\n\r\n    function solicitarRevision(string memory _asignatura,string memory _id) public soloAlumno(msg.sender){\r\n        bytes32 hashAlumno=keccak256(abi.encodePacked(_id));\r\n        require (nota[hashAlumno]>0,\"No estas corregido, por lo que no podes solicitar revision\");\r\n        revisiones[_asignatura].push(_id);\r\n        emit alumnoRevision(_id);\r\n    }\r\n\r\n    function pedidosRevision (string memory _asignatura) public view soloProfesor(msg.sender) returns (string[] memory) {\r\n        return revisiones[_asignatura];\r\n     }\r\n}",
  "sourcePath": "C:\\Users\\Agust\\OneDrive\\Escritorio\\CursoDAPPS\\EvaluacionesTruffle\\contracts\\Evaluaciones.sol",
  "compiler": {
    "name": "solc",
    "version": "0.8.13+commit.abaa5c0e.Emscripten.clang"
  },
  "schemaVersion": "3.4.6",
  "updatedAt": "2022-03-24T14:36:45.173Z",
  "networkType": "ethereum",
  "devdoc": {
    "kind": "dev",
    "methods": {},
    "version": 1
  },
  "userdoc": {
    "kind": "user",
    "methods": {},
    "version": 1
  }
}